:020000040800F2
:100000000000022019210008050D0008070D000856
:10001000090D00080B0D00080D0D00080000000080
:100020000000000000000000000000000F0D0008AC
:10003000110D000800000000130D0008150D000848
:100040006921000869210008692100086921000868
:100050006921000869210008692100086921000858
:100060006921000869210008692100086921000848
:100070006921000869210008692100086921000838
:100080006921000869210008692100086921000828
:100090006921000869210008692100086921000818
:1000A0006921000869210008692100086921000808
:1000B00069210008692100086921000869210008F8
:1000C00069210008692100086921000869210008E8
:1000D00069210008692100086921000869210008D8
:1000E00069210008692100086921000869210008C8
:1000F00069210008692100086921000869210008B8
:1001000069210008692100086921000869210008A7
:100110006921000869210008692100086921000897
:100120006921000869210008692100086921000887
:100130006921000869210008692100086921000877
:100140006921000869210008692100086921000867
:100150006921000869210008692100086921000857
:100160006921000869210008692100086921000847
:1001700069210008692100086921000800000000C9
:08018000692100086921000853
:10019000034613F8012B002AFBD1181A01387047C7
:1001A00001F0FF01102A2BDB10F0070F08D010F828
:1001B000013B013A8B422DD010F0070F42B3F6D12C
:1001C000F0B441EA012141EA014122F007047FF045
:1001D00000070023F0E80256083C85EA010586EA9C
:1001E000010685FA47F5A3FA87F586FA47F6A5FAD8
:1001F00087F68EB9EED1F0BC01F0FF0102F00702E4
:1002000032B110F8013B013A83EA010313B1F8D18E
:100210000020704701387047002D06BF354603386F
:10022000073815F0010F07D1013015F4807F02BFA8
:10023000013015F4C03F0130F0BC0138704700BFF9
:1002400053B94AB9002908BF00281CBF4FF0FF313D
:100250004FF0FF3000F00CB8ADF1080C6DE904CEA2
:1002600002F038FCDDF804E0DDE9022304B0704759
:10027000704700BF0348044B834202D0034B03B1D5
:10028000184770475C0000205C0000200000000060
:100290000548064B1B1AD90F01EBA301491002D0E8
:1002A000034B03B1184770475C0000205C0000203E
:1002B0000000000010B5064C237843B9FFF7DAFFC1
:1002C000044B13B10448AFF300800123237010BD29
:1002D0005C00002000000000902D000808B5054BD0
:1002E0001BB105490548AFF30080BDE80840FFF7A2
:1002F000CFBF00BF0000000060000020902D00086C
:1003000000B587B08DF80F0000238DF81730C82393
:10031000009301230DF117020DF10F01034800F0C6
:10032000FEFE9DF8170007B05DF804FB540900209D
:1003300010B582B060F07F008DF804008DF80510D4
:100340000A4C00224FF40061204601F050FCC82303
:10035000022201A9064800F000FE01224FF40061CC
:10036000204601F044FC02B010BD00BF000C02406A
:1003700054090020074B5A68074B1B680749A1FB2B
:1003800003139B0C03FB00F0024B5B689B1A834238
:10039000FAD37047001000E00800002083DE1B4302
:1003A00008B501210020FFF7C3FF0A20FFF7E2FF95
:1003B00000210846FFF7BCFF01210020FFF7B8FF2E
:1003C0000A20FFF7D7FF08BD38B504460A4D0022C2
:1003D0004FF40061284601F00AFC2046FFF790FF29
:1003E0000020FFF78DFF044601224FF400612846EC
:1003F00001F0FDFB204638BD000C024008B501208D
:10040000FFF7E2FFC0F3801008BD10B57E20FFF7B4
:10041000DBFF044601467E20FFF78AFF204610BD21
:1004200010B52820FFF7D0FF04462920FFF7CCFFA6
:1004300044EA002080B210BD10B52A20FFF7C4FFA7
:1004400004462B20FFF7C0FF44EA002080B210BD15
:1004500038B50546002407E004F11000C0B2FFF7EC
:10046000B3FF28550134E4B2052CF5D90020FFF77D
:10047000ABFF38BD10B50C4640F040010C20FFF733
:1004800057FFE1B20D20FFF753FF210A0E20FFF7BF
:100490004FFF0A210B20FFF74BFF0B20FFF794FFC4
:1004A00010F0010FF9D100210B20FFF741FF10BD23
:1004B00010B5012806D0022809D0C0B941244FF454
:1004C000885108E040F201144FF4445103E040F237
:1004D000E1144FF480510020FFF7CCFF21460420A7
:1004E000FFF7C8FF00211F20FFF722FF10BD0024E7
:1004F0002146F0E738B50546002407E004F1160070
:10050000295DC0B2FFF714FF0134E4B2072CF5D91E
:100510000020FFF759FF38BD10B582B0124B6C4672
:1005200093E8030084E803000220FFF7C1FF2C21B9
:100530000120FFF7FDFEFF217E20FFF7F9FE80215D
:100540002D20FFF7F5FE1F213120FFF7F1FE204699
:10055000FFF7D0FFFF217F20FFF7EAFE11210520E2
:10056000FFF7E6FE02B010BDA82D000870B50646E4
:100570000D4600224FF400610A4801F038FBF820D4
:10058000FFF7BEFE002403E0305DFFF7B9FE013443
:10059000AC42F9DB01224FF40061024801F027FB75
:1005A00070BD00BF000C024008B50220FFF70CFF31
:1005B00040F00101C9B20220FFF7BAFE08BD10B534
:1005C0000C46FFF7D3FF0220FFF7FEFE10F0010FED
:1005D000F9D1E1B27C20FFF7ABFE210A7D20FFF7C5
:1005E000A7FEFFF7E1FF10BD08B51021014801F09B
:1005F000F7FA08BD0008024070B506460D46002215
:100600004FF400610A4801F0F2FA7220FFF778FE19
:10061000002404E00020FFF773FE30550134AC42A3
:10062000F8DB01224FF40061014801F0E0FA70BDEF
:10063000000C024070B582B006460D467020FFF7F0
:10064000C3FE7020FFF7C0FE012805D810F0010F8F
:100650001FD1002002B070BD0520FFF7B5FE044693
:1006600000F0FE010520FFF763FE01215520FFF792
:100670005FFE0C217520FFF75BFE4FF47A70FFF7E9
:1006800079FE44F00101C9B20520FFF751FE0020B8
:10069000E0E704210DEB0100FFF7AEFF9DF8053008
:1006A0002B709DF806409DF8073044EA0324B4F50A
:1006B000C06F08D92B7813F03F0F09D1B4F5C06F84
:1006C00008D82046C6E721463046FFF795FFF1E7F8
:1006D0000020BFE70020BDE7074AD2F8FC3043F016
:1006E0008073C2F8FC30054B00225A601A6842F051
:1006F00001021A60704700BF00ED00E0001000E04A
:1007000030B585B0FFF78CFE0546FFF795FE294C06
:1007100000902B46284A8021204601F027FD2046E4
:10072000FFF736FD254D41F2883382B22146284637
:1007300001F05DFC02A8FFF78BFE214B93E803005C
:100740002060A1802046FFF723FD41F2883382B26A
:100750002146284601F04BFC002416E004F110036A
:100760006B44144D13F8083C164A8021284601F0CA
:10077000FDFC2846FFF70CFD41F2883382B2294682
:100780000E4801F034FC0134E4B2052CE6D9094CE2
:100790000D4B1B6823801B0CA3702046FFF7F8FC51
:1007A00041F2883382B22146044801F020FC05B0B2
:1007B00030BD00BFD4080020B42D0008AC090020D3
:1007C000C42D0008CC2D0008D42D0008002302E021
:1007D000034AD3540133B3F5167FF9DB704700BFEA
:1007E00078060020F8B507460E46264C0B46264AEA
:1007F0008021204601F0BAFC2046FFF7C9FC41F2F7
:10080000883382B22146214801F0F1FB002411E037
:100810001C4D3B5D1E4A8021284601F0A7FC28465E
:10082000FFF7B6FC41F2883382B22946174801F03F
:10083000DEFB0134A64214DD14F00F0FE8D1114D98
:100840002346144A8021284601F090FC2846FFF7F1
:100850009FFC41F2883382B229460C4801F0C7FB65
:10086000D6E7084C0C4B1B6823801B0CA37020465A
:10087000FFF78EFC41F2883382B22146034801F033
:10088000B6FBF8BDD4080020D82D0008AC09002024
:100890000C2E0008002E0008D42D0008F0B583B0FF
:1008A000FFF7B3FD044610F0200F0CD114F0040F35
:1008B00026D114F0080F48D114F0010F66D00023A0
:1008C0008DF807305AE0412001F054FAFFF796FD09
:1008D0002F4B18702F4DC3B22F4A8021284601F0AC
:1008E00045FC2846FFF754FC41F2883382B2294682
:1008F0002A4801F07CFB20217E20FFF719FDD5E777
:10090000244F3D46264E0FCE0FC5336825F8023BD7
:100910001B0C2B703846FFF73BFC41F2883382B248
:1009200039461E4801F063FB00238DF8073003E0D1
:1009300089B21C48FFF756FF0DF107011948FFF770
:1009400079FE01460028F3D1B3E7124EB446164DA6
:100950000FCDACE80F0095E807008CE807003046A3
:10096000FFF716FC41F2883382B231460B4801F0A2
:100970003EFBA1E789B20B48FFF734FF0DF10701F9
:100980000848FFF757FE01460028F3D103B0F0BD39
:10099000D0080020D4080020142E0008AC09002044
:1009A000282E0008780000203C2E000872B6FEE7D2
:1009B00000B595B03022002108A801F00DFC0023FD
:1009C000039304930593069307930193204A116CB4
:1009D00041F080511164126C02F080520192019A30
:1009E00002931C4B1A6842F480421A601B6803F49D
:1009F00080430293029B012308934FF480330993B1
:100A000002220E924FF480030F9304231093A82127
:100A100011911292139308A800F0ACFC98B90F231F
:100A2000039302230493002305934FF4A0530693EA
:100A30004FF480530793052103A800F005FF20B968
:100A400015B05DF804FBFFF7B1FFFFF7AFFF00BF84
:100A5000003802400070004008B501F05FF9FFF770
:100A6000A7FFFFF739FE00F023F800F0F7F800F0D9
:100A700085F8FFF795FC0A2001F07CF9FFF74CFDA3
:100A8000FFF73EFEFFF7A2FEFFF7AEFD48B9064BAB
:100A90001B78002BF8D04FF416710448FFF78FFD38
:100AA000F2E7FFF7FBFEF2E7D0080020780600200F
:100AB00070B58CB000240794089409940A940B94A0
:100AC00001942B4B1A6B42F080021A631A6B02F0EE
:100AD00080020192019A02941A6B42F004021A6396
:100AE0001A6B02F004020292029A03941A6B42F00B
:100AF00010021A631A6B02F010020392039A049414
:100B00001A6B42F002021A631A6B02F0020204929C
:100B1000049A05941A6B42F008021A631A6B02F0E9
:100B200008020592059A06941A6B42F001021A63B4
:100B30001B6B03F001030693069B0E4D22464FF4F8
:100B40002841284601F053F84FF4284607960894A8
:100B5000099407A9084800F04DFF07960123089360
:100B600009940A9407A9284600F044FF0CB070BD10
:100B700000380240000C02400010024008B50E4848
:100B80000E4B03604FF48273436000238360C360A5
:100B900002220261012242614FF400728261C3614C
:100BA0000362436283620A23C36200F077F900B9EB
:100BB00008BDFFF7FBFEFBE75409002000380040AA
:100BC000F0B589B00023039304930593069307932C
:100BD00002681F4B9A4201D009B0F0BD0024009476
:100BE00003F500331A6C42F480421A641A6C02F462
:100BF00080420092009A01941A6B42F004021A6338
:100C00001A6B02F004020192019A02941A6B42F0EC
:100C100002021A631B6B03F002030293029B0C2374
:100C200003930227049703260696052507950DEBE7
:100C30000301084800F0DEFE4FF48063039304973D
:100C400005940696079503A9034800F0D3FEC3E771
:100C500000380040000802400004024008B50A487D
:100C60000A4B03604FF4E133436000238360C360A9
:100C700003610C2242618361C36101F088F900B90C
:100C800008BDFFF793FEFBE7AC0900200010014010
:100C900000B589B00023039304930593069307934B
:100CA000026803F1804303F588339A4202D009B009
:100CB0005DF804FB0021019103F594335A6C42F076
:100CC00010025A645A6C02F010020192019A0291C9
:100CD0001A6B42F001021A631B6B03F001030293CB
:100CE000029B4FF4C06303930223049303230693F0
:100CF0000723079303A9024800F07CFED7E700BF53
:100D000000000240FEE7FEE7FEE7FEE7FEE7704771
:100D10007047704708B501F01BF808BD82B000218C
:100D200000910B4B5A6C42F480425A645A6C02F4A4
:100D300080420092009A01911A6C42F080521A642B
:100D40001B6C03F080530193019B02B0704700BFFE
:100D5000003802402DE9F04782B005468846174624
:100D60001E4601F001F80A9B1B1A03EB060900F06E
:100D7000FBFF8246284B1B68C3F3CB3309FB03F30D
:100D800001932B689C6838EA04040CBF01230023FC
:100D9000BB423DD0B6F1FF3FF3D000F0E5FFA0EB42
:100DA0000A00484507D2019A02B14A46019B013B1D
:100DB00001939146E5E72A68536823F0E003536006
:100DC0006B68B3F5827F0BD0AB6AB3F5005F14D0CC
:100DD000012385F85130002385F85030032018E0B6
:100DE000AB68B3F5004F02D0B3F5806FECD12A6841
:100DF000136823F040031360E6E72A68136823F4BE
:100E0000005313602A68136843F400531360DFE74C
:100E1000002002B0BDE8F0870800002070B584B063
:100E200004460D46164600920B4601220221FFF7AA
:100E300091FFD0B9174B1B68174AA2FB03235B0D28
:100E40004FF47A7202FB03F303936368B3F5827F76
:100E500011D0039B3BB1039B013B039323689B6829
:100E600013F0800FF5D104B070BD636D43F0200323
:100E700063650320F7E700962B4600228021204679
:100E8000FFF768FF0028EED0636D43F02003636531
:100E90000320E8E708000020819F5E1600285AD052
:100EA00010B50446436A33B94368B3F5827F05D071
:100EB0000023C36102E00023036143610023A362B6
:100EC00094F85130002B40D0022384F8513022682E
:100ED000136823F040031360636803F48273A2680D
:100EE00002F404421343E26802F4006213432269ED
:100EF00002F002021343626902F001021343A26985
:100F000002F400721343E26902F038021343226ACA
:100F100002F080021343A26A02F4005221681343D4
:100F20000B60638B03F00403626A02F01002216815
:100F300013434B602268D36923F40063D36100201C
:100F40006065012384F8513010BD84F8503020468C
:100F5000FFF736FEB8E7012070472DE9F04383B074
:100F60000446894690461D4600F0FEFE94F8516006
:100F7000F6B2012E40F0CC800746B9F1000F00F028
:100F8000C880B8F1000F00F0C48094F85030012BF5
:100F900000F0C380012384F85030032384F85130DB
:100FA00000236365C4F83090A4F83480A4F8368038
:100FB000A363A387E38763642364A368B3F5004F47
:100FC0001ED023681A6812F0400F03D11A6842F04D
:100FD00040021A60E368B3F5006F1CD0636813B178
:100FE000B8F1010F5FD1226B236812781A73236B5B
:100FF00001332363E38E9BB2013B9BB2E38652E055
:101000002268136823F0400313602268136843F4D6
:1010100080431360D5E7636813B1B8F1010F15D1B0
:10102000226B23681288DA60236B02332363E38E1A
:101030009BB2013B9BB2E38608E000F095FEC01B2B
:10104000A84202D3B5F1FF3F15D1A5B1E38E9BB203
:10105000002B42D023689A6812F0020FEDD0226B69
:101060001288DA60236B02332363E38E9BB2013B69
:101070009BB2E386EAE7012384F85130002384F829
:101080005030032645E0226B12781A73236B01332C
:101090002363B4F836C01FFA8CFC0CF1FF3C1FFA36
:1010A0008CFCA4F836C0E38E9BB2B3B123689A6877
:1010B00012F0020FE7D100F057FEC01BA84202D386
:1010C000B5F1FF3F01D1002DEDD1012384F851305E
:1010D000002384F8503003261BE03A462946204678
:1010E000FFF79CFE08B120236365A36833B9019321
:1010F0002368DA6801929B680193019B012384F8BD
:101100005130002384F85030636D13B9002600E09D
:101110000226304603B0BDE8F0830226F9E72DE948
:10112000F04383B00446884691461F460A9D00F06E
:101130001BFE064694F85130DBB26268012B0AD0E0
:10114000B2F5827F40F00581A268002A40F0058157
:10115000042B40F00481B8F1000F00F00281B9F1D6
:10116000000F00F00081002F00F0FF8094F8503055
:10117000012B00F0FC80012384F8503094F85130AA
:10118000DBB2042B02D0052384F8513000236365C1
:10119000C4F83890E787A787C4F83080E786A78629
:1011A0002364636423681A6812F0400F03D11A683D
:1011B00042F040021A60E368B3F5006F11D0636833
:1011C0000BB1012F0BD1226B236812781A73236B9A
:1011D00001332363E38E9BB2013B9BB2E38601277D
:1011E00071E063680BB1012F0BD1226B2368128869
:1011F000DA60236B02332363E38E9BB2013B9BB225
:10120000E38601271BE023689A6812F0010F0ED0D5
:10121000E28F92B25AB1DA68A36B1A80A36B0233E1
:10122000A363E38F9BB2013B9BB2E387012700F0EE
:101230009BFD801BA84202D3B5F1FF3F1ED1E38E78
:101240009BB21BB9E38F9BB2002B62D023689A68D4
:1012500012F0020FD7D0E28E92B2002AD3D0002F24
:10126000D1D0226B1288DA60236B02332363E38EC2
:101270009BB2013B9BB2E3860027C4E7012384F8BD
:101280005130002384F85030032063E023689A68CB
:1012900012F0010F0ED0E28F92B25AB1DA68A36B4E
:1012A0001A70A36B0133A363E38F9BB2013B9BB224
:1012B000E387012700F058FD831BAB4202D3B5F151
:1012C000FF3F1ED1EDB1E38E9BB213B9E38F9BB20A
:1012D000FBB123689A6812F0020FD7D0E28E92B267
:1012E000002AD3D0002FD1D0226B12781A73236B2F
:1012F00001332363E38E9BB2013B9BB2E38600275D
:10130000C4E7012384F85130002384F850300320CF
:1013100020E0324629462046FFF780FD90B9A368B9
:1013200033B901932368DA6801929B680193019BAA
:10133000012384F85130002384F85030636D4BB1A1
:10134000012007E020236365002384F8503001204A
:1013500000E0022003B0BDE8F0830220FAE702209B
:10136000F8E70120F6E70120F4E70120F2E7022088
:10137000F0E70000002800F0E08170B582B004467C
:10138000036813F0010F3BD09F4B9B6803F00C03E5
:10139000042B2CD09C4B9B6803F00C03082B21D012
:1013A0006368B3F5803F4FD0B3F5A02F52D0964B72
:1013B0001A6822F480321A601A6822F480221A60B5
:1013C0006368002B50D000F0CFFC05468E4B1B68A5
:1013D00013F4003F14D100F0C7FC401B6428F5D97A
:1013E0000320B1E1884B5B6813F4800FD8D0864BA3
:1013F0001B6813F4003F03D06368002B00F09F814B
:10140000236813F0020F54D07F4B9B6813F00C0F2E
:101410003ED07D4B9B6803F00C03082B33D0E36870
:10142000002B68D0794B01221A6000F09DFC054624
:10143000754B1B6813F0020F54D100F095FC401B54
:101440000228F5D903207FE16F4A136843F4803303
:101450001360B5E76C4B1A6842F480221A601A6870
:1014600042F480321A60ABE700F07EFC0546664B22
:101470001B6813F4003FC3D000F076FC401B6428C7
:10148000F5D9032060E1604B5B6813F4800FC6D18F
:101490005D4B1B6813F0020F03D0E368012B40F093
:1014A0005081594A136823F0F803216943EAC103C4
:1014B0001360236813F0080F42D063696BB3534B7A
:1014C0000122C3F8802E00F04FFC05464E4B5B6FA7
:1014D00013F0020F34D100F047FC401B0228F5D96D
:1014E000032031E1484A136823F0F803216943EAF5
:1014F000C1031360DDE7454B00221A6000F034FCA5
:101500000546414B1B6813F0020FD2D000F02CFCB3
:10151000401B0228F5D9032016E13C4B0022C3F8FA
:10152000802E00F021FC0546374B5B6F13F0020F55
:1015300006D000F019FC401B0228F5D9032003E176
:10154000236813F0040F77D02F4B1B6C13F0805FD0
:1015500033D1002301932C4B1A6C42F080521A6451
:101560001B6C03F080530193019B0125284B1B68E2
:1015700013F4807F23D0A368012B34D0052B38D0FF
:10158000214B1A6F22F001021A671A6F22F004022F
:101590001A67A368002B3DD000F0E6FB06461A4B05
:1015A0001B6F13F0020F46D100F0DEFB801B41F2EF
:1015B00088339842F3D90320C6E00025D6E7144AC1
:1015C000136843F48073136000F0CEFB0646104BA3
:1015D0001B6813F4807FCED100F0C6FB801B02286D
:1015E000F5D90320B0E0084A136F43F001031367F5
:1015F000CFE7054B1A6F42F004021A671A6F42F0E8
:1016000001021A67C5E700BF0038024000004742E8
:101610000070004000F0A8FB0646524B1B6F13F011
:10162000020F08D000F0A0FB801B41F288339842E3
:10163000F3D9032088E0EDB9A369002B00F0838083
:10164000484A926802F00C02082A51D0022B17D0A7
:10165000454B00221A6600F087FB0446414B1B688D
:1016600013F0007F42D000F07FFB001B0228F5D969
:10167000032069E03B4A136C23F080531364DBE7DB
:10168000394B00221A6600F06FFB0546354B1B688C
:1016900013F0007F06D000F067FB401B0228F5D94D
:1016A000032051E0E369226A1343626A43EA82132A
:1016B000A26A5208013A43EA0243E26A43EA026339
:1016C000284A5360284B01221A6600F04DFB04465D
:1016D000244B1B6813F0007F06D100F045FB001B74
:1016E0000228F5D903202FE000202DE000202BE078
:1016F000012B2BD01B4B5B6803F48001E269914204
:1017000026D103F03F02216A8A4223D1616A47F65B
:10171000C0721A40B2EB811F1ED103F44031A26A9D
:101720005208013AB1EB024F18D103F07063E26A3C
:10173000B3EB026F14D1002006E0012070470120B6
:1017400002E0012000E0002002B070BD0120FBE7B4
:101750000120F9E70120F7E70120F5E70120F3E791
:101760000120F1E7003802400000474208B5334B42
:101770009B6803F00C03042B5BD0082B5BD12F4B31
:101780005A6802F03F025B6813F4800F2CD02B4B99
:101790005868C0F388104FEA401CBCEB000C6EEB9D
:1017A0000E0E4FEA8E1343EA9C634FEA8C11B1EBA5
:1017B0000C0163EB0E03DB0043EA5173C90011EB2C
:1017C000000C43F10003590200234FEA4C2041EA88
:1017D000DC51FEF735FD194B5B68C3F30143013360
:1017E0005B00B0FBF3F008BD144B5868C0F38810E1
:1017F0004FEA401CBCEB000C6EEB0E0E4FEA8E1352
:1018000043EA9C634FEA8C11B1EB0C0163EB0E03CE
:10181000DB0043EA5173C90011EB000C43F10003F4
:10182000990200234FEA8C2041EA9C51FEF708FD03
:10183000D1E70348D7E70348D5E700BF00380240A7
:1018400000127A000024F400002800F09B8070B59C
:101850000D4604464F4B1B6803F007038B4208D22A
:10186000CBB24C4A1370136803F007038B4240F06D
:101870008B80236813F0020F17D013F0040F04D0ED
:10188000454A936843F4E0539360236813F0080FCC
:1018900004D0414A936843F4604393603E4A93689E
:1018A00023F0F003A1680B439360236813F0010F4A
:1018B00032D06368012B21D09A1E012A25D9364ADD
:1018C000126812F0020F61D033498A6822F00302D5
:1018D00013438B6000F048FA06462F4B9B6803F0D9
:1018E0000C036268B3EB820F16D000F03DFA801B48
:1018F00041F288339842F0D9032042E0264A126828
:1019000012F4003FE0D101203BE0234A126812F0BC
:10191000007FD9D1012034E01E4B1B6803F0070380
:10192000AB4207D9EAB21B4B1A701B6803F00703DE
:10193000AB422DD1236813F0040F06D0164A9368EA
:1019400023F4E053E1680B439360236813F0080F1E
:1019500007D0114A936823F46043216943EAC10325
:101960009360FFF703FF0C4B9B68C3F303130B4A11
:10197000D35CD8400A4B18600A4B186800F0A8F9ED
:10198000002070BD012070470120FAE70120F8E730
:101990000120F6E7003C024000380240602E0008BB
:1019A0000800002004000020014B1868704700BFA9
:1019B0000800002008B5FFF7F7FF044B9B68C3F34E
:1019C0008223034AD35CD84008BD00BF00380240E0
:1019D000582E000808B5FFF7E7FF044B9B68C3F3D8
:1019E0004233034AD35CD84008BD00BF00380240F0
:1019F000582E000800230F2B00F2E98070B582B04A
:101A000065E085684FEA430E032404FA0EF425EAE4
:101A10000405CC6804FA0EF42C438460446824EA7C
:101A200002044A68C2F300129A40224342605CE01A
:101A3000DC08083450F8242003F00705AD004FF00F
:101A40000F0E0EFA05FE22EA0E0E0A69AA4042EABD
:101A50000E0240F824205CE0072200E0002202FA97
:101A60000EF22A4302345A4D45F82420594A94680C
:101A70006FEA0C0224EA0C054E6816F4801F01D0B0
:101A80004CEA0405534CA560E46802EA04054E687C
:101A900016F4001F01D04CEA04054E4CE560646862
:101AA00002EA04054E6816F4003F01D04CEA040532
:101AB000484C6560246822404D6815F4803F01D091
:101AC0004CEA0402434C226001330F2B7DD80122E3
:101AD0009A400C6804EA020C32EA0404F4D14C681F
:101AE00004F00304013C012C8BD94A6802F0030284
:101AF000032A09D0C4685D000322AA4024EA020434
:101B00008A68AA402243C2604A6802F00302022A9D
:101B10008ED004684FEA430E032202FA0EF224EA42
:101B200002044A6802F0030202FA0EF22243026043
:101B30004A6812F4403FC7D000220192264A546CF2
:101B400044F480445464526C02F480420192019A3D
:101B50009C08A51C1E4A52F8255003F0030E4FEABC
:101B60008E0E0F2202FA0EF225EA02051B4A90425F
:101B70003FF474AF02F5806290421AD002F58062A1
:101B8000904218D002F58062904216D002F5806231
:101B9000904214D002F58062904212D002F5806229
:101BA000904210D002F5806290423FF455AF082277
:101BB00055E7012253E7022251E703224FE70422AF
:101BC0004DE705224BE7062249E702B070BD70479A
:101BD00000380140003C0140003802400000024053
:101BE0000369194201D001207047002070470AB1F3
:101BF000816170470904816170470000002808DB9B
:101C00000901C9B200F1604000F5614080F800139D
:101C1000704700F00F000901C9B2014B1954704719
:101C200014ED00E000B500F00700C0F1070CBCF1B6
:101C3000040F28BF4FF0040C031D062B0FD9C31E41
:101C40004FF0FF3E0EFA0CF021EA000199400EFA27
:101C500003FE22EA0E0241EA02005DF804FB0023C3
:101C6000EEE70000074AD36823F4E0631B041B0C73
:101C7000000200F4E060034343F0BF6343F4003329
:101C8000D360704700ED00E010B50446054BD868FE
:101C9000C0F30220FFF7C6FF01462046FFF7AEFF64
:101CA00010BD00BF00ED00E00138B0F1807F0BD225
:101CB0004FF0E0235861054AF02182F823100020FC
:101CC000986107221A6170470120704700ED00E01B
:101CD00010B504460E4B1A784FF47A73B3FBF2F347
:101CE0000C4A1068B0FBF3F0FFF7DEFF68B90F2C69
:101CF00001D901200AE0002221464FF0FF30FFF712
:101D0000C3FF054B1C60002000E0012010BD00BF98
:101D100000000020080000200400002008B50B4B44
:101D20001A6842F400721A601A6842F480621A60FB
:101D30001A6842F480721A600320FFF793FF0F20A5
:101D4000FFF7C6FFFEF7EAFF002008BD003C024097
:101D5000034A1168034B1B780B441360704700BFA4
:101D6000F409002000000020014B1868704700BFF4
:101D7000F409002038B50446FFF7F6FF0546B4F134
:101D8000FF3F02D0044B1B781C44FFF7EDFF401BC4
:101D9000A042FAD338BD00BF00000020026802F163
:101DA0000C0353E8003F23F490730C3242E80031F7
:101DB0000029F3D1026802F1140353E8003F23F035
:101DC0000103143242E800310029F3D1036B012BE7
:101DD00005D0202380F84230002303637047026857
:101DE00002F10C0353E8003F23F010030C3242E8E9
:101DF00000310029F3D1ECE710B5044602681369FD
:101E000023F44053C1680B431361836802691A438A
:101E100043691A43C3691A430168CB6823F4164324
:101E200023F00C031343CB600268536923F440731F
:101E300081690B4353610368314A934206D002F52E
:101E40008062934202D0FFF7B5FD01E0FFF7C2FDCB
:101E5000E369B3F5004F29D00021031849411B184D
:101E600041F10001C90041EA5371DB0018186368B1
:101E70004FEA83024FEA937341F10001FEF7E0F964
:101E8000204AA2FB00314909642303FB11031B0113
:101E90003233A2FB03235B0903F0F00202EB0112D1
:101EA00003F00F03216813448B6010BD0023021858
:101EB00043EB0301121841F10001C90041EA5271DC
:101EC000D200101841F10001626892185B41FEF7E0
:101ED000B7F90C4AA2FB00314909642303FB110343
:101EE000DB003233A2FB03235B095A0002F4F872D1
:101EF00002EB011203F00703216813448B60D4E75F
:101F0000001001401F85EB512DE9F04383B00546D9
:101F10000E4617469946DDF828802B681C6836EA7D
:101F200004040CBF01240024BC4228D1B8F1FF3FB7
:101F3000F3D0FFF719FFA0EB0900404523D8B8F113
:101F4000000F22D02B68DA6812F0040FE5D0802E43
:101F5000E3D0402EE1D01A6812F0080FDDD0002443
:101F600001941A6801925B680193019B2846FFF770
:101F700015FF08236B6485F84040012000E0002035
:101F800003B0BDE8F0830320FAE70320F8E760B36D
:101F900010B5044690F8413013B3242384F841303F
:101FA0002268D36823F40053D3602046FFF724FF50
:101FB0002268136923F4904313612268536923F064
:101FC0002A0353612268D36843F40053D36000208E
:101FD0006064202384F8413084F84230606310BD8F
:101FE00080F84030FEF754FED7E7012070472DE916
:101FF000F04182B01E4690F84130DBB2202B56D122
:1020000004460D469046002955D00AB901204FE0FC
:1020100000234364212380F84130FFF7A5FE0746E3
:10202000A4F82480A4F82680A368B3F5805F02D0CA
:102030004FF0000814E023692BB34FF000080FE0C5
:10204000202384F84130032032E038F8023B226834
:10205000C3F308035360E28C92B2013A92B2E28475
:10206000E38C9BB293B100963B4600228021204630
:10207000FFF74AFF0028E3D1002DE6D015F8012B29
:1020800023685A60E7E7A8460025E9E700963B4643
:10209000002240212046FFF737FF18B9202384F89B
:1020A000413005E0202384F84130032000E0022085
:1020B00002B0BDE8F0810120FAE70000034AD2F83F
:1020C000883043F47003C2F88830704700ED00E0B8
:1020D00010B503460C4A0D490D48006840B10C4844
:1020E00000680344521A934206D8094A136010BD8F
:1020F0000748084C0460F2E700F076F80C23036010
:102100004FF0FF30F3E700BF0000022000040000A2
:10211000F8090020480B0020DFF834D0FFF7CEFF8D
:102120000C480D490D4A002302E0D458C450043332
:10213000C4188C42F9D30A4A0A4C002301E0136008
:102140000432A242FBD300F055F8FEF785FC70473D
:1021500000000220000000205C000020B42E0008D7
:102160005C000020440B0020FEE700000CB430B5FA
:10217000184B0C1E1D689DB008DA8B232B604FF0A6
:10218000FF301DB0BDE8304002B070474FF402731D
:10219000ADF814304FF000031B9314BF04F1FF336C
:1021A0002346049307934FF6FF7302900690ADF811
:1021B0001630209A21AB02A92846019300F094F929
:1021C000431CBCBF8B232B60002CDAD0029B002267
:1021D0001A70D6E70C00002002440346934200D157
:1021E000704703F8011BF9E7014B1868704700BFFF
:1021F0000C00002070B50D4D0D4C641BA410002682
:10220000A64209D10B4D0C4C00F0C2FD641BA4107A
:102210000026A64205D170BD55F8043B984701360B
:10222000EEE755F8043B98470136F2E7AC2E00087C
:10223000AC2E0008AC2E0008B02E00087047704786
:1022400038B50546002941D051F8043C0C1F002B3D
:10225000B8BFE41800F0E0F81D4A136833B96360B2
:1022600014602846BDE8384000F0DCB8A34208D925
:10227000206821188B4201BF19685B68091821602A
:10228000EDE71A465B680BB1A342FAD91168501802
:10229000A0420BD120680144501883421160E0D164
:1022A00018685B68536008441060DAE702D90C23B1
:1022B0002B60D6E7206821188B4204BF19685B6841
:1022C000636004BF091821605460CAE738BD00BFCD
:1022D000400B002070B50F4E0C463168054611B911
:1022E00000F0A4FB30602146284600F09FFB431C11
:1022F00003D14FF0FF34204670BDC41C24F003040A
:10230000A042F8D0211A284600F090FB0130F2D10B
:10231000EFE700BF3C0B00202DE9F843CD1C25F072
:10232000030508350C2D38BF0C25002D064601DBB2
:10233000A94204D90C2333600020BDE8F883DFF8FC
:10234000D48000F069F8D8F800301C4644BB294618
:102350003046FFF7BFFF431C044658D1D8F8004071
:102360002746002F43D1002C4BD0236839463046F6
:1023700004EB030900F05AFB814542D121686D1A34
:1023800029463046FFF7A6FF01303AD023682B4498
:102390002360D8F800305A6862BBC8F800700FE0BC
:1023A0002268521B20D40B2A17D96119A342256039
:1023B00018BF5960636808BFC8F8001062514B60CD
:1023C000304600F02FF804F10B00231D20F0070029
:1023D000C21A1CBF1B1AA350AFE76268A3420CBF0E
:1023E000C8F800205A60EBE723466468AEE73C4635
:1023F0007F68B6E71A465B68A342FBD100235360AF
:10240000DEE70C233360304600F00CF894E70560FB
:10241000D6E700BF400B00200148FFF70FBF00BF09
:10242000380B00200148FFF70ABF00BF380B00201F
:102430002DE9F0478E681F46BE420B6882460C4667
:1024400090462DD8B1F90C2012F4906F26D0656912
:10245000096905EB4505A3EB010905EBD5757B1C67
:102460004B446D109D4238BF1D46530527D5294664
:10247000FFF752FF064660B321694A4600F0E6FACC
:10248000A38923F4906343F08003A38126616561EF
:102490004E44A5EB09052660A5603E46BE4200D924
:1024A0003E4620683246414600F0A6FAA3689B1BD0
:1024B000A3602368334423600020BDE8F0872A46E8
:1024C00000F0D2FA06460028E0D121695046FFF715
:1024D000B7FE0C23CAF80030A38943F04003A38160
:1024E0004FF0FF30E9E700002DE9F04F98468B8967
:1024F0001B069DB007460D46144610D50B6973B9EF
:102500004021FFF709FF2860286130B90C233B60A8
:102510004FF0FF301DB0BDE8F08F40236B6100230A
:10252000099320238DF82930CDF80C803023DFF873
:102530009C818DF82A304FF0010923469A4613F802
:10254000012B0AB1252AF9D1BAEB040B0BD05B465B
:10255000224629463846FFF76BFF013000F0A7807E
:10256000099A5A4409929AF80030002B00F09F8093
:1025700000234FF0FF32CDE905230AF1010A04934D
:1025800007938DF853301A935446052214F8011B13
:102590004E48FDF705FE049AD8B9D00644BF202363
:1025A0008DF85330110744BF2B238DF853309AF820
:1025B00000302A2B15D0079A544600204FF00A0C01
:1025C000214611F8013B303B092B4BD9B0B10792A2
:1025D00014E0A0EB080309FA03F313430493A246A3
:1025E000D2E7039B191D1B680391002BBBBF5B4205
:1025F00042F0020207930793B8BF049223782E2B70
:102600000AD163782A2B32D1039B1A1D1B680392CF
:1026100043EAE37302340593DFF8C0A02178032274
:102620005046FDF7BDFD38B1049BA0EB0A004022E7
:10263000824013430134049314F8011B24488DF89D
:1026400028100622FDF7ACFD002836D0214B1BBB1D
:10265000039B073323F0070308330393099B334499
:1026600009936AE70CFB02320C460120A8E700231D
:102670000134059319464FF00A0C204610F8012B3F
:10268000303A092A03D9002BC6D00591C4E70CFBC8
:10269000012104460123F0E703AB00932A460E4BC9
:1026A00004A93846AFF30080421C0646D6D1AB8958
:1026B0005B063FF52DAF09982CE703AB00932A4644
:1026C000054B04A9384600F079F8EDE7702E0008B4
:1026D0007A2E00080000000031240008762E000841
:1026E0002DE9F047164698468A680B69DDF8209078
:1026F0009342B8BF1346336091F8432007460C4617
:102700000AB1013333602368990642BF336802334C
:102710003360256815F0060506D104F1190AE3684F
:1027200032689B1AAB4226DC94F843302268003BA7
:1027300018BF012392062BD404F1430241463846C8
:10274000C84701301ED02368226903F00603042B1A
:1027500002BFE5683368ED1AA3680CBF25EAE5758A
:1027600000259342C4BF9B1AED1800261A34B542C7
:102770001AD1002008E00123524641463846C84796
:10278000013003D14FF0FF30BDE8F0870135C6E7D7
:10279000E1185A1C302081F84300224494F8451077
:1027A00082F843100233C7E70123224641463846E8
:1027B000C8470130E6D00136D9E700002DE9FF47D0
:1027C0000F7E0C9E782F914680460C469A4601F16A
:1027D000430207D8622F0AD8002F00F0D180582F6B
:1027E00000F0B88004F1420684F842703AE0A7F1A4
:1027F0006303152BF6D801A151F823F055280008E2
:1028000069280008E5270008E5270008E5270008F3
:10281000E527000869280008E5270008E5270008E3
:10282000E5270008E5270008672900089328000825
:1028300021290008E5270008E52700088929000864
:10284000E527000893280008E5270008E527000889
:102850002929000833681A1D1B68326004F14206FA
:1028600084F8423001239CE033682068191D3160F0
:10287000060601D51D6803E04506FBD5B3F90050F7
:10288000002D03DA2D236D4284F8433058480A2383
:1028900011E021683368080653F8045B02D4490646
:1028A00048BFADB26F2F5248336014BF0A230823CC
:1028B000002184F843106668A660002E05DB2168BD
:1028C0002E4321F0040121604BD01646B5FBF3F1F5
:1028D00003FB1157C75D06F8017D2F46BB420D462D
:1028E000F4D9082B0BD12368DF0708D52369616869
:1028F0009942DEBF302306F8013C06F1FF36921BF9
:102900002261CDF800A04B4603AA21464046FFF7BE
:10291000E7FE01304AD14FF0FF3004B0BDE8F08748
:10292000236843F0200323603248782784F84570F9
:10293000236831681F0651F8045B02D45F0648BF64
:10294000ADB23160D90744BF43F0200323601DB10D
:102950001023ADE72648E9E7236823F0200323602E
:10296000F6E71646BDE7336825686169181D3060D3
:102970002E061B6801D5196002E06806FBD5198098
:10298000002323611646BCE733681A1D32601E68B7
:10299000626800213046FDF703FC08B1801B6060CF
:1029A00063682361002384F84330AAE72369324631
:1029B00049464046D0470130ADD023689B0713D429
:1029C000E068039B9842B8BF1846A6E70123324649
:1029D00049464046D04701309DD00135E368039910
:1029E0005B1AAB42F2DCEBE7002504F11906F5E7D0
:1029F000812E0008922E0008884210B501EB0204D7
:102A000002D98442234607D8431EA14208D011F8B8
:102A1000012B03F8012FF8E7024401468A4200D156
:102A200010BD13F8014D02F8014DF7E738B5064D1A
:102A30000023044608462B60FFF74AFB431C02D1E3
:102A40002B6803B1236038BD340B00200A44914247
:102A500000F1FF3300D1704710B511F8014B03F8B6
:102A6000014F9142F9D110BD2DE9F04107461446BE
:102A70000D4621B9BDE8F0411146FFF74DBC2AB91A
:102A8000FFF7DEFB25462846BDE8F08100F01AF886
:102A90008442064602D8B4EB500FF4D8214638469B
:102AA000FFF73AFC804608B94546ECE7B4422246B7
:102AB000294628BF3246FFF7C9FF29463846FFF7A7
:102AC000BFFBF1E751F8043C181F002BBCBF0B58AB
:102AD000C01870472DE9F047089D0E4604460F4682
:102AE000002B4AD194468C45B2FA82F260D942B1A9
:102AF000C2F12003974020FA03F30CFA02FC1F43B3
:102B000094404FEA1C4E1FFA8CF6B7FBFEF1230CE3
:102B10000EFB117743EA074301FB06F098420AD9FE
:102B20001CEB030301F1FF3780F01581984240F25E
:102B30001281023963441B1AA4B2B3FBFEF00EFBF0
:102B4000103344EA034400FB06F6A6420AD91CEB04
:102B5000040400F1FF3380F00081A64240F2FD80C2
:102B60006444023840EA0140A41B00211DB1D44056
:102B70000023C5E90043BDE8F0878B4205D90DB1BC
:102B8000C5E9000100210846F5E7B3FA83F1002901
:102B900046D1B34202D3824200F2F580841A66EB3A
:102BA000030201201746002DE5D0C5E90047E2E702
:102BB000002A40F09380A1EB0C034FEA1C471FFA58
:102BC0008CFE0121B3FBF7F607FB1630230C43EA1A
:102BD00000430EFB06F0984208D91CEB030306F1F4
:102BE000FF3802D2984200F2D08046461B1AA4B2A7
:102BF000B3FBF7F007FB103344EA03440EFB00FE7F
:102C0000A64508D91CEB040400F1FF3302D2A64507
:102C100000F2B6801846A4EB0E0440EA0640A5E791
:102C2000C1F120078B4022FA07FC4CEA030C06FA9C
:102C300001FE20FA07F426FA07F344EA0E0400FA2C
:102C400001F84FEA1C404FEA1449B3FBF0FE1FFAAB
:102C50008CF600FB1E3349EA03430EFB06F9994547
:102C600002FA01F20BD91CEB03030EF1FF3A80F0DC
:102C70008580994540F28280AEF1020E6344A3EB59
:102C80000909A4B2B9FBF0F300FB139944EA094423
:102C900003FB06F6A64208D91CEB040403F1FF303F
:102CA00068D2A64266D9023B644443EA0E40A41BA4
:102CB000A0FB02E6B4427346B14652D34FD05DB199
:102CC000B8EB030264EB090404FA07F722FA01F3F4
:102CD0001F43CC40C5E9007400214CE7C2F120013C
:102CE00020FA01F30CFA02FC26FA01F19640334374
:102CF0004FEA1C471FFA8CFEB1FBF7F007FB1016DA
:102D0000190C41EA064100FB0EF68E4204FA02F469
:102D100008D91CEB010100F1FF382DD28E422BD9CE
:102D200002386144891B9BB2B1FBF7F607FB161111
:102D300043EA014306FB0EF1994208D91CEB030359
:102D400006F1FF3814D2994212D9023E63445B1A4D
:102D500046EA004136E73946EDE6184602E7F04517
:102D6000ADD2BEEB020366EB0C060138B146A6E716
:102D70004646ECE7034698E74046D3E7D6467EE76B
:102D80006444023847E708460DE7023E63442DE7F6
:102D9000F8B500BFF8BC08BC9E467047F8B500BF48
:082DA000F8BC08BC9E46704718
:102DA800FFFFFFFFFFFFFFFF0000000049443A203C
:102DB80025303478253034780D0A00004D41433AE7
:102DC8002000000025303258200000000D0A0000C5
:102DD8002D2D2D2D2D2D2D2D2D2D2D2D2D2D2D2D1B
:102DE8002D2D0D0A5061636B6574206C656E6774D8
:102DF800683A2025640000000D0A25303478202028
:102E08002000000025303278200000004C696E6BED
:102E1800207374617475733A2025640D0A000000EC
:102E280052656365697665206F766572666C6F7743
:102E38000D0A00004F766572666C6F7720636F75B8
:102E48006E746572206F766572666C6F770D0A0016
:102E58000000000001020304000000000000000060
:102E68000102030406070809232D302B2000686C93
:102E78004C00656667454647003031323334353695
:102E880037383941424344454600303132333435CE
:0C2E9800363738396162636465660000FB
:082EA400ECD2FF7F01000000E9
:042EAC00DD0200083B
:042EB000B50200085F
:102EB40001000000100000000024F40010000020B5
:102EC40000000000FC090020640A0020CC0A002055
:102ED40000000000000000000000000000000000EE
:102EE40000000000000000000000000000000000DE
:102EF40000000000000000000000000000000000CE
:0C2F0400000000000000000000000000C1
:0400000508002119B5
:00000001FF
